{
  "contractName": "DeDoctor",
  "abi": [
    {
      "anonymous": false,
      "inputs": [
        {
          "indexed": true,
          "internalType": "uint256",
          "name": "id",
          "type": "uint256"
        },
        {
          "indexed": true,
          "internalType": "uint256",
          "name": "patientId",
          "type": "uint256"
        },
        {
          "indexed": true,
          "internalType": "uint256",
          "name": "doctorId",
          "type": "uint256"
        },
        {
          "indexed": false,
          "internalType": "string",
          "name": "symptoms",
          "type": "string"
        },
        {
          "indexed": false,
          "internalType": "string",
          "name": "pastSymptoms",
          "type": "string"
        },
        {
          "indexed": false,
          "internalType": "string",
          "name": "date",
          "type": "string"
        },
        {
          "indexed": false,
          "internalType": "string",
          "name": "time",
          "type": "string"
        },
        {
          "indexed": false,
          "internalType": "address",
          "name": "walletAddress",
          "type": "address"
        }
      ],
      "name": "AppointmentCreated",
      "type": "event"
    },
    {
      "anonymous": false,
      "inputs": [
        {
          "indexed": true,
          "internalType": "uint256",
          "name": "patientId",
          "type": "uint256"
        },
        {
          "indexed": true,
          "internalType": "address",
          "name": "walletAddress",
          "type": "address"
        },
        {
          "indexed": false,
          "internalType": "string",
          "name": "name",
          "type": "string"
        },
        {
          "indexed": false,
          "internalType": "string",
          "name": "gender",
          "type": "string"
        },
        {
          "indexed": false,
          "internalType": "string",
          "name": "city",
          "type": "string"
        },
        {
          "indexed": false,
          "internalType": "string",
          "name": "patientUri",
          "type": "string"
        }
      ],
      "name": "PatientRegistered",
      "type": "event"
    },
    {
      "anonymous": false,
      "inputs": [
        {
          "indexed": true,
          "internalType": "string",
          "name": "name",
          "type": "string"
        },
        {
          "indexed": false,
          "internalType": "string",
          "name": "gender",
          "type": "string"
        },
        {
          "indexed": true,
          "internalType": "string",
          "name": "city",
          "type": "string"
        },
        {
          "indexed": true,
          "internalType": "string",
          "name": "language",
          "type": "string"
        },
        {
          "indexed": false,
          "internalType": "string",
          "name": "profileURI",
          "type": "string"
        },
        {
          "indexed": false,
          "internalType": "address",
          "name": "docAddress",
          "type": "address"
        }
      ],
      "name": "RegisteredDoctor",
      "type": "event"
    },
    {
      "anonymous": false,
      "inputs": [
        {
          "indexed": true,
          "internalType": "string",
          "name": "name",
          "type": "string"
        },
        {
          "indexed": true,
          "internalType": "string",
          "name": "city",
          "type": "string"
        },
        {
          "indexed": true,
          "internalType": "string",
          "name": "ownerName",
          "type": "string"
        },
        {
          "indexed": false,
          "internalType": "address",
          "name": "ownerAddress",
          "type": "address"
        },
        {
          "indexed": false,
          "internalType": "string",
          "name": "number",
          "type": "string"
        },
        {
          "indexed": false,
          "internalType": "string",
          "name": "uri",
          "type": "string"
        }
      ],
      "name": "RegisteredPharmacy",
      "type": "event"
    },
    {
      "inputs": [
        {
          "internalType": "bytes32",
          "name": "message",
          "type": "bytes32"
        },
        {
          "internalType": "bytes",
          "name": "signature",
          "type": "bytes"
        }
      ],
      "name": "authenticatedFunction",
      "outputs": [],
      "stateMutability": "nonpayable",
      "type": "function"
    },
    {
      "inputs": [
        {
          "internalType": "uint256",
          "name": "patientId",
          "type": "uint256"
        },
        {
          "internalType": "uint256",
          "name": "doctorId",
          "type": "uint256"
        },
        {
          "internalType": "string",
          "name": "symptoms",
          "type": "string"
        },
        {
          "internalType": "string",
          "name": "pastSymptoms",
          "type": "string"
        },
        {
          "internalType": "string",
          "name": "date",
          "type": "string"
        },
        {
          "internalType": "string",
          "name": "time",
          "type": "string"
        }
      ],
      "name": "createAppointment",
      "outputs": [],
      "stateMutability": "nonpayable",
      "type": "function"
    },
    {
      "inputs": [],
      "name": "getAllDoctors",
      "outputs": [
        {
          "components": [
            {
              "internalType": "uint256",
              "name": "doctorId",
              "type": "uint256"
            },
            {
              "internalType": "string",
              "name": "name",
              "type": "string"
            },
            {
              "internalType": "string",
              "name": "gender",
              "type": "string"
            },
            {
              "internalType": "string",
              "name": "city",
              "type": "string"
            },
            {
              "internalType": "string",
              "name": "language",
              "type": "string"
            },
            {
              "internalType": "uint256",
              "name": "price",
              "type": "uint256"
            },
            {
              "internalType": "string",
              "name": "profileURI",
              "type": "string"
            },
            {
              "internalType": "address",
              "name": "docAddress",
              "type": "address"
            }
          ],
          "internalType": "struct DeDoctor.DoctorProfile[]",
          "name": "",
          "type": "tuple[]"
        }
      ],
      "stateMutability": "view",
      "type": "function"
    },
    {
      "inputs": [],
      "name": "getAllPharmacies",
      "outputs": [
        {
          "components": [
            {
              "internalType": "uint256",
              "name": "id",
              "type": "uint256"
            },
            {
              "internalType": "string",
              "name": "name",
              "type": "string"
            },
            {
              "internalType": "string",
              "name": "city",
              "type": "string"
            },
            {
              "internalType": "string",
              "name": "ownerName",
              "type": "string"
            },
            {
              "internalType": "address",
              "name": "ownerAddress",
              "type": "address"
            },
            {
              "internalType": "string",
              "name": "number",
              "type": "string"
            },
            {
              "internalType": "string",
              "name": "uri",
              "type": "string"
            }
          ],
          "internalType": "struct DeDoctor.Pharmacy[]",
          "name": "",
          "type": "tuple[]"
        }
      ],
      "stateMutability": "view",
      "type": "function"
    },
    {
      "inputs": [
        {
          "internalType": "uint256",
          "name": "doctorId",
          "type": "uint256"
        }
      ],
      "name": "getAppointmentsByDoctorId",
      "outputs": [
        {
          "components": [
            {
              "internalType": "uint256",
              "name": "id",
              "type": "uint256"
            },
            {
              "internalType": "uint256",
              "name": "patientId",
              "type": "uint256"
            },
            {
              "internalType": "uint256",
              "name": "doctorId",
              "type": "uint256"
            },
            {
              "internalType": "string",
              "name": "appointmentUri",
              "type": "string"
            },
            {
              "internalType": "string",
              "name": "symptoms",
              "type": "string"
            },
            {
              "internalType": "string",
              "name": "pastSymptoms",
              "type": "string"
            },
            {
              "internalType": "string",
              "name": "date",
              "type": "string"
            },
            {
              "internalType": "string",
              "name": "time",
              "type": "string"
            },
            {
              "internalType": "address",
              "name": "walletAddress",
              "type": "address"
            }
          ],
          "internalType": "struct DeDoctor.Appointment[]",
          "name": "",
          "type": "tuple[]"
        }
      ],
      "stateMutability": "view",
      "type": "function"
    },
    {
      "inputs": [
        {
          "internalType": "uint256",
          "name": "patientId",
          "type": "uint256"
        }
      ],
      "name": "getAppointmentsByPatientId",
      "outputs": [
        {
          "components": [
            {
              "internalType": "uint256",
              "name": "id",
              "type": "uint256"
            },
            {
              "internalType": "uint256",
              "name": "patientId",
              "type": "uint256"
            },
            {
              "internalType": "uint256",
              "name": "doctorId",
              "type": "uint256"
            },
            {
              "internalType": "string",
              "name": "appointmentUri",
              "type": "string"
            },
            {
              "internalType": "string",
              "name": "symptoms",
              "type": "string"
            },
            {
              "internalType": "string",
              "name": "pastSymptoms",
              "type": "string"
            },
            {
              "internalType": "string",
              "name": "date",
              "type": "string"
            },
            {
              "internalType": "string",
              "name": "time",
              "type": "string"
            },
            {
              "internalType": "address",
              "name": "walletAddress",
              "type": "address"
            }
          ],
          "internalType": "struct DeDoctor.Appointment[]",
          "name": "",
          "type": "tuple[]"
        }
      ],
      "stateMutability": "view",
      "type": "function"
    },
    {
      "inputs": [
        {
          "internalType": "uint256",
          "name": "doctorId",
          "type": "uint256"
        }
      ],
      "name": "getDoctorById",
      "outputs": [
        {
          "components": [
            {
              "internalType": "uint256",
              "name": "doctorId",
              "type": "uint256"
            },
            {
              "internalType": "string",
              "name": "name",
              "type": "string"
            },
            {
              "internalType": "string",
              "name": "gender",
              "type": "string"
            },
            {
              "internalType": "string",
              "name": "city",
              "type": "string"
            },
            {
              "internalType": "string",
              "name": "language",
              "type": "string"
            },
            {
              "internalType": "uint256",
              "name": "price",
              "type": "uint256"
            },
            {
              "internalType": "string",
              "name": "profileURI",
              "type": "string"
            },
            {
              "internalType": "address",
              "name": "docAddress",
              "type": "address"
            }
          ],
          "internalType": "struct DeDoctor.DoctorProfile",
          "name": "",
          "type": "tuple"
        }
      ],
      "stateMutability": "view",
      "type": "function"
    },
    {
      "inputs": [
        {
          "internalType": "address",
          "name": "walletAddress",
          "type": "address"
        }
      ],
      "name": "getDoctorByWalletAddress",
      "outputs": [
        {
          "components": [
            {
              "internalType": "uint256",
              "name": "doctorId",
              "type": "uint256"
            },
            {
              "internalType": "string",
              "name": "name",
              "type": "string"
            },
            {
              "internalType": "string",
              "name": "gender",
              "type": "string"
            },
            {
              "internalType": "string",
              "name": "city",
              "type": "string"
            },
            {
              "internalType": "string",
              "name": "language",
              "type": "string"
            },
            {
              "internalType": "uint256",
              "name": "price",
              "type": "uint256"
            },
            {
              "internalType": "string",
              "name": "profileURI",
              "type": "string"
            },
            {
              "internalType": "address",
              "name": "docAddress",
              "type": "address"
            }
          ],
          "internalType": "struct DeDoctor.DoctorProfile",
          "name": "",
          "type": "tuple"
        }
      ],
      "stateMutability": "view",
      "type": "function"
    },
    {
      "inputs": [
        {
          "internalType": "address",
          "name": "walletAddress",
          "type": "address"
        }
      ],
      "name": "getPatientByWalletAddress",
      "outputs": [
        {
          "components": [
            {
              "internalType": "uint256",
              "name": "patientId",
              "type": "uint256"
            },
            {
              "internalType": "address",
              "name": "walletAddress",
              "type": "address"
            },
            {
              "internalType": "string",
              "name": "name",
              "type": "string"
            },
            {
              "internalType": "string",
              "name": "gender",
              "type": "string"
            },
            {
              "internalType": "string",
              "name": "city",
              "type": "string"
            },
            {
              "internalType": "string",
              "name": "patientUri",
              "type": "string"
            }
          ],
          "internalType": "struct DeDoctor.Patient",
          "name": "",
          "type": "tuple"
        }
      ],
      "stateMutability": "view",
      "type": "function"
    },
    {
      "inputs": [
        {
          "internalType": "uint256",
          "name": "pharmacyId",
          "type": "uint256"
        }
      ],
      "name": "getPharmacyById",
      "outputs": [
        {
          "components": [
            {
              "internalType": "uint256",
              "name": "id",
              "type": "uint256"
            },
            {
              "internalType": "string",
              "name": "name",
              "type": "string"
            },
            {
              "internalType": "string",
              "name": "city",
              "type": "string"
            },
            {
              "internalType": "string",
              "name": "ownerName",
              "type": "string"
            },
            {
              "internalType": "address",
              "name": "ownerAddress",
              "type": "address"
            },
            {
              "internalType": "string",
              "name": "number",
              "type": "string"
            },
            {
              "internalType": "string",
              "name": "uri",
              "type": "string"
            }
          ],
          "internalType": "struct DeDoctor.Pharmacy",
          "name": "",
          "type": "tuple"
        }
      ],
      "stateMutability": "view",
      "type": "function"
    },
    {
      "inputs": [
        {
          "internalType": "uint256",
          "name": "",
          "type": "uint256"
        }
      ],
      "name": "pharmacies",
      "outputs": [
        {
          "internalType": "uint256",
          "name": "id",
          "type": "uint256"
        },
        {
          "internalType": "string",
          "name": "name",
          "type": "string"
        },
        {
          "internalType": "string",
          "name": "city",
          "type": "string"
        },
        {
          "internalType": "string",
          "name": "ownerName",
          "type": "string"
        },
        {
          "internalType": "address",
          "name": "ownerAddress",
          "type": "address"
        },
        {
          "internalType": "string",
          "name": "number",
          "type": "string"
        },
        {
          "internalType": "string",
          "name": "uri",
          "type": "string"
        }
      ],
      "stateMutability": "view",
      "type": "function"
    },
    {
      "inputs": [
        {
          "internalType": "string",
          "name": "name",
          "type": "string"
        },
        {
          "internalType": "string",
          "name": "gender",
          "type": "string"
        },
        {
          "internalType": "string",
          "name": "city",
          "type": "string"
        },
        {
          "internalType": "string",
          "name": "language",
          "type": "string"
        },
        {
          "internalType": "address",
          "name": "docAddress",
          "type": "address"
        },
        {
          "internalType": "uint256",
          "name": "price",
          "type": "uint256"
        },
        {
          "internalType": "string",
          "name": "profileURI",
          "type": "string"
        }
      ],
      "name": "registerDoctor",
      "outputs": [],
      "stateMutability": "nonpayable",
      "type": "function"
    },
    {
      "inputs": [
        {
          "internalType": "string",
          "name": "name",
          "type": "string"
        },
        {
          "internalType": "address",
          "name": "walletAddress",
          "type": "address"
        },
        {
          "internalType": "string",
          "name": "gender",
          "type": "string"
        },
        {
          "internalType": "string",
          "name": "city",
          "type": "string"
        },
        {
          "internalType": "string",
          "name": "patientUri",
          "type": "string"
        }
      ],
      "name": "registerPatient",
      "outputs": [
        {
          "internalType": "uint256",
          "name": "",
          "type": "uint256"
        }
      ],
      "stateMutability": "nonpayable",
      "type": "function"
    },
    {
      "inputs": [
        {
          "internalType": "string",
          "name": "name",
          "type": "string"
        },
        {
          "internalType": "string",
          "name": "city",
          "type": "string"
        },
        {
          "internalType": "string",
          "name": "ownerName",
          "type": "string"
        },
        {
          "internalType": "address",
          "name": "ownerAddress",
          "type": "address"
        },
        {
          "internalType": "string",
          "name": "number",
          "type": "string"
        },
        {
          "internalType": "string",
          "name": "uri",
          "type": "string"
        }
      ],
      "name": "registerPharmacy",
      "outputs": [
        {
          "components": [
            {
              "internalType": "uint256",
              "name": "id",
              "type": "uint256"
            },
            {
              "internalType": "string",
              "name": "name",
              "type": "string"
            },
            {
              "internalType": "string",
              "name": "city",
              "type": "string"
            },
            {
              "internalType": "string",
              "name": "ownerName",
              "type": "string"
            },
            {
              "internalType": "address",
              "name": "ownerAddress",
              "type": "address"
            },
            {
              "internalType": "string",
              "name": "number",
              "type": "string"
            },
            {
              "internalType": "string",
              "name": "uri",
              "type": "string"
            }
          ],
          "internalType": "struct DeDoctor.Pharmacy",
          "name": "",
          "type": "tuple"
        }
      ],
      "stateMutability": "nonpayable",
      "type": "function"
    },
    {
      "inputs": [
        {
          "internalType": "bytes32",
          "name": "message",
          "type": "bytes32"
        },
        {
          "internalType": "bytes",
          "name": "signature",
          "type": "bytes"
        }
      ],
      "name": "verifySignature",
      "outputs": [
        {
          "internalType": "address",
          "name": "",
          "type": "address"
        }
      ],
      "stateMutability": "pure",
      "type": "function"
    }
  ],
  "bytecode": "0x60806040523480156200001157600080fd5b50d380156200001f57600080fd5b50d280156200002d57600080fd5b50614f18806200003e6000396000f3fe608060405234801561001057600080fd5b50d3801561001d57600080fd5b50d2801561002a57600080fd5b506004361061010f5760003560e01c80638ee638c1116100b1578063d7c385df11610080578063d7c385df146102ee578063daca6f781461031e578063f0d950901461034e578063f33465e41461036c5761010f565b80638ee638c11461022e57806391e583751461025e578063b0e8f0651461028e578063d1937927146102be5761010f565b8063588479d7116100ed578063588479d71461017c5780637afe24ef146101ac5780638a5acd73146101dc5780638ec1e669146102125761010f565b8063182bd69a14610114578063299529eb1461013057806343c65db114610160575b600080fd5b61012e60048036038101906101299190613870565b61038a565b005b61014a600480360381019061014591906138cc565b61040b565b6040516101579190614893565b60405180910390f35b61017a60048036038101906101759190613c2b565b610674565b005b610196600480360381019061019191906139b7565b610b3e565b6040516101a39190614871565b60405180910390f35b6101c660048036038101906101c19190613bfe565b611086565b6040516101d39190614871565b60405180910390f35b6101f660048036038101906101f19190613bfe565b6113ed565b60405161020997969594939291906148ae565b60405180910390f35b61022c60048036038101906102279190613ad0565b6116f7565b005b61024860048036038101906102439190613843565b6118e9565b604051610255919061482d565b60405180910390f35b61027860048036038101906102739190613bfe565b611d2a565b604051610285919061482d565b60405180910390f35b6102a860048036038101906102a39190613bfe565b61209c565b6040516102b591906145cd565b60405180910390f35b6102d860048036038101906102d39190613bfe565b61245d565b6040516102e591906145cd565b60405180910390f35b61030860048036038101906103039190613843565b61281e565b604051610315919061484f565b60405180910390f35b61033860048036038101906103339190613870565b612bc2565b604051610345919061456d565b60405180910390f35b610356612c5d565b60405161036391906145ef565b60405180910390f35b61037461306d565b6040516103819190614611565b60405180910390f35b60006103968383612bc2565b90503373ffffffffffffffffffffffffffffffffffffffff168173ffffffffffffffffffffffffffffffffffffffff1614610406576040517f08c379a00000000000000000000000000000000000000000000000000000000081526004016103fd9061478d565b60405180910390fd5b505050565b600080600190505b60025481116104d4578573ffffffffffffffffffffffffffffffffffffffff166006600083815260200190815260200160002060010160009054906101000a900473ffffffffffffffffffffffffffffffffffffffff1673ffffffffffffffffffffffffffffffffffffffff1614156104c1576040517f08c379a00000000000000000000000000000000000000000000000000000000081526004016104b89061480d565b60405180910390fd5b80806104cc90614c4d565b915050610413565b50600260008154809291906104e890614c4d565b91905055506040518060c0016040528060025481526020018673ffffffffffffffffffffffffffffffffffffffff168152602001878152602001858152602001848152602001838152506006600060025481526020019081526020016000206000820151816000015560208201518160010160006101000a81548173ffffffffffffffffffffffffffffffffffffffff021916908373ffffffffffffffffffffffffffffffffffffffff16021790555060408201518160020190805190602001906105b49291906134ef565b5060608201518160030190805190602001906105d19291906134ef565b5060808201518160040190805190602001906105ee9291906134ef565b5060a082015181600501908051906020019061060b9291906134ef565b509050508473ffffffffffffffffffffffffffffffffffffffff166002547ff156817296d38a12a62ee341736e236acef84bea88890dcbda800fa3230f5a2f8887878760405161065e94939291906146bd565b60405180910390a3600254905095945050505050565b6003600081548092919061068790614c4d565b919050555060405180610120016040528060035481526020018781526020018681526020016040518060200160405280600081525081526020018581526020018481526020018381526020018281526020013373ffffffffffffffffffffffffffffffffffffffff1681525060076000600354815260200190815260200160002060008201518160000155602082015181600101556040820151816002015560608201518160030190805190602001906107429291906134ef565b50608082015181600401908051906020019061075f9291906134ef565b5060a082015181600501908051906020019061077c9291906134ef565b5060c08201518160060190805190602001906107999291906134ef565b5060e08201518160070190805190602001906107b69291906134ef565b506101008201518160080160006101000a81548173ffffffffffffffffffffffffffffffffffffffff021916908373ffffffffffffffffffffffffffffffffffffffff160217905550905050600860008781526020019081526020016000206007600060035481526020019081526020016000209080600181540180825580915050600190039060005260206000209060090201600090919091909150600082015481600001556001820154816001015560028201548160020155600382018160030190805461088590614bea565b610890929190613575565b5060048201816004019080546108a590614bea565b6108b0929190613575565b5060058201816005019080546108c590614bea565b6108d0929190613575565b5060068201816006019080546108e590614bea565b6108f0929190613575565b50600782018160070190805461090590614bea565b610910929190613575565b506008820160009054906101000a900473ffffffffffffffffffffffffffffffffffffffff168160080160006101000a81548173ffffffffffffffffffffffffffffffffffffffff021916908373ffffffffffffffffffffffffffffffffffffffff160217905550505060096000868152602001908152602001600020600760006003548152602001908152602001600020908060018154018082558091505060019003906000526020600020906009020160009091909190915060008201548160000155600182015481600101556002820154816002015560038201816003019080546109fd90614bea565b610a08929190613575565b506004820181600401908054610a1d90614bea565b610a28929190613575565b506005820181600501908054610a3d90614bea565b610a48929190613575565b506006820181600601908054610a5d90614bea565b610a68929190613575565b506007820181600701908054610a7d90614bea565b610a88929190613575565b506008820160009054906101000a900473ffffffffffffffffffffffffffffffffffffffff168160080160006101000a81548173ffffffffffffffffffffffffffffffffffffffff021916908373ffffffffffffffffffffffffffffffffffffffff160217905550505084866003547fc12c451f8428c3cc06dbf0f68d73764f8d197028635fc083009dc48063f834238787878733604051610b2e95949392919061471e565b60405180910390a4505050505050565b610b46613602565b60016000815480929190610b5990614c4d565b91905055506040518060e0016040528060015481526020018881526020018781526020018681526020018573ffffffffffffffffffffffffffffffffffffffff16815260200184815260200183815250600560006001548152602001908152602001600020600082015181600001556020820151816001019080519060200190610be49291906134ef565b506040820151816002019080519060200190610c019291906134ef565b506060820151816003019080519060200190610c1e9291906134ef565b5060808201518160040160006101000a81548173ffffffffffffffffffffffffffffffffffffffff021916908373ffffffffffffffffffffffffffffffffffffffff16021790555060a0820151816005019080519060200190610c829291906134ef565b5060c0820151816006019080519060200190610c9f9291906134ef565b5090505084604051610cb19190614530565b604051809103902086604051610cc79190614530565b604051809103902088604051610cdd9190614530565b60405180910390207f7a0d92006ddb0b84d9ebefad0c181a46dc9b90d53273127464e2c8b074e53df0878787604051610d1893929190614588565b60405180910390a46005600060015481526020019081526020016000206040518060e001604052908160008201548152602001600182018054610d5a90614bea565b80601f0160208091040260200160405190810160405280929190818152602001828054610d8690614bea565b8015610dd35780601f10610da857610100808354040283529160200191610dd3565b820191906000526020600020905b815481529060010190602001808311610db657829003601f168201915b50505050508152602001600282018054610dec90614bea565b80601f0160208091040260200160405190810160405280929190818152602001828054610e1890614bea565b8015610e655780601f10610e3a57610100808354040283529160200191610e65565b820191906000526020600020905b815481529060010190602001808311610e4857829003601f168201915b50505050508152602001600382018054610e7e90614bea565b80601f0160208091040260200160405190810160405280929190818152602001828054610eaa90614bea565b8015610ef75780601f10610ecc57610100808354040283529160200191610ef7565b820191906000526020600020905b815481529060010190602001808311610eda57829003601f168201915b505050505081526020016004820160009054906101000a900473ffffffffffffffffffffffffffffffffffffffff1673ffffffffffffffffffffffffffffffffffffffff1673ffffffffffffffffffffffffffffffffffffffff168152602001600582018054610f6690614bea565b80601f0160208091040260200160405190810160405280929190818152602001828054610f9290614bea565b8015610fdf5780601f10610fb457610100808354040283529160200191610fdf565b820191906000526020600020905b815481529060010190602001808311610fc257829003601f168201915b50505050508152602001600682018054610ff890614bea565b80601f016020809104026020016040519081016040528092919081815260200182805461102490614bea565b80156110715780601f1061104657610100808354040283529160200191611071565b820191906000526020600020905b81548152906001019060200180831161105457829003601f168201915b50505050508152505090509695505050505050565b61108e613602565b600560008381526020019081526020016000206040518060e0016040529081600082015481526020016001820180546110c690614bea565b80601f01602080910402602001604051908101604052809291908181526020018280546110f290614bea565b801561113f5780601f106111145761010080835404028352916020019161113f565b820191906000526020600020905b81548152906001019060200180831161112257829003601f168201915b5050505050815260200160028201805461115890614bea565b80601f016020809104026020016040519081016040528092919081815260200182805461118490614bea565b80156111d15780601f106111a6576101008083540402835291602001916111d1565b820191906000526020600020905b8154815290600101906020018083116111b457829003601f168201915b505050505081526020016003820180546111ea90614bea565b80601f016020809104026020016040519081016040528092919081815260200182805461121690614bea565b80156112635780601f1061123857610100808354040283529160200191611263565b820191906000526020600020905b81548152906001019060200180831161124657829003601f168201915b505050505081526020016004820160009054906101000a900473ffffffffffffffffffffffffffffffffffffffff1673ffffffffffffffffffffffffffffffffffffffff1673ffffffffffffffffffffffffffffffffffffffff1681526020016005820180546112d290614bea565b80601f01602080910402602001604051908101604052809291908181526020018280546112fe90614bea565b801561134b5780601f106113205761010080835404028352916020019161134b565b820191906000526020600020905b81548152906001019060200180831161132e57829003601f168201915b5050505050815260200160068201805461136490614bea565b80601f016020809104026020016040519081016040528092919081815260200182805461139090614bea565b80156113dd5780601f106113b2576101008083540402835291602001916113dd565b820191906000526020600020905b8154815290600101906020018083116113c057829003601f168201915b5050505050815250509050919050565b600560205280600052604060002060009150905080600001549080600101805461141690614bea565b80601f016020809104026020016040519081016040528092919081815260200182805461144290614bea565b801561148f5780601f106114645761010080835404028352916020019161148f565b820191906000526020600020905b81548152906001019060200180831161147257829003601f168201915b5050505050908060020180546114a490614bea565b80601f01602080910402602001604051908101604052809291908181526020018280546114d090614bea565b801561151d5780601f106114f25761010080835404028352916020019161151d565b820191906000526020600020905b81548152906001019060200180831161150057829003601f168201915b50505050509080600301805461153290614bea565b80601f016020809104026020016040519081016040528092919081815260200182805461155e90614bea565b80156115ab5780601f10611580576101008083540402835291602001916115ab565b820191906000526020600020905b81548152906001019060200180831161158e57829003601f168201915b5050505050908060040160009054906101000a900473ffffffffffffffffffffffffffffffffffffffff16908060050180546115e690614bea565b80601f016020809104026020016040519081016040528092919081815260200182805461161290614bea565b801561165f5780601f106116345761010080835404028352916020019161165f565b820191906000526020600020905b81548152906001019060200180831161164257829003601f168201915b50505050509080600601805461167490614bea565b80601f01602080910402602001604051908101604052809291908181526020018280546116a090614bea565b80156116ed5780601f106116c2576101008083540402835291602001916116ed565b820191906000526020600020905b8154815290600101906020018083116116d057829003601f168201915b5050505050905087565b60008081548092919061170990614c4d565b919050555060405180610100016040528060005481526020018881526020018781526020018681526020018581526020018381526020018281526020018473ffffffffffffffffffffffffffffffffffffffff16815250600460008054815260200190815260200160002060008201518160000155602082015181600101908051906020019061179a9291906134ef565b5060408201518160020190805190602001906117b79291906134ef565b5060608201518160030190805190602001906117d49291906134ef565b5060808201518160040190805190602001906117f19291906134ef565b5060a0820151816005015560c08201518160060190805190602001906118189291906134ef565b5060e08201518160070160006101000a81548173ffffffffffffffffffffffffffffffffffffffff021916908373ffffffffffffffffffffffffffffffffffffffff160217905550905050836040516118719190614530565b6040518091039020856040516118879190614530565b60405180910390208860405161189d9190614530565b60405180910390207fdd9c708b22055c635545cace9ee3fc755e16aa883b7f1487619fde1b38c6d6dc8985886040516118d893929190614678565b60405180910390a450505050505050565b6118f1613655565b6000600190505b6000548111611ce9576004600082815260200190815260200160002060070160009054906101000a900473ffffffffffffffffffffffffffffffffffffffff1673ffffffffffffffffffffffffffffffffffffffff168373ffffffffffffffffffffffffffffffffffffffff161415611cd6576004600082815260200190815260200160002060405180610100016040529081600082015481526020016001820180546119a490614bea565b80601f01602080910402602001604051908101604052809291908181526020018280546119d090614bea565b8015611a1d5780601f106119f257610100808354040283529160200191611a1d565b820191906000526020600020905b815481529060010190602001808311611a0057829003601f168201915b50505050508152602001600282018054611a3690614bea565b80601f0160208091040260200160405190810160405280929190818152602001828054611a6290614bea565b8015611aaf5780601f10611a8457610100808354040283529160200191611aaf565b820191906000526020600020905b815481529060010190602001808311611a9257829003601f168201915b50505050508152602001600382018054611ac890614bea565b80601f0160208091040260200160405190810160405280929190818152602001828054611af490614bea565b8015611b415780601f10611b1657610100808354040283529160200191611b41565b820191906000526020600020905b815481529060010190602001808311611b2457829003601f168201915b50505050508152602001600482018054611b5a90614bea565b80601f0160208091040260200160405190810160405280929190818152602001828054611b8690614bea565b8015611bd35780601f10611ba857610100808354040283529160200191611bd3565b820191906000526020600020905b815481529060010190602001808311611bb657829003601f168201915b5050505050815260200160058201548152602001600682018054611bf690614bea565b80601f0160208091040260200160405190810160405280929190818152602001828054611c2290614bea565b8015611c6f5780601f10611c4457610100808354040283529160200191611c6f565b820191906000526020600020905b815481529060010190602001808311611c5257829003601f168201915b505050505081526020016007820160009054906101000a900473ffffffffffffffffffffffffffffffffffffffff1673ffffffffffffffffffffffffffffffffffffffff1673ffffffffffffffffffffffffffffffffffffffff1681525050915050611d25565b8080611ce190614c4d565b9150506118f8565b506040517f08c379a0000000000000000000000000000000000000000000000000000000008152600401611d1c906147cd565b60405180910390fd5b919050565b611d32613655565b600460008381526020019081526020016000206040518061010001604052908160008201548152602001600182018054611d6b90614bea565b80601f0160208091040260200160405190810160405280929190818152602001828054611d9790614bea565b8015611de45780601f10611db957610100808354040283529160200191611de4565b820191906000526020600020905b815481529060010190602001808311611dc757829003601f168201915b50505050508152602001600282018054611dfd90614bea565b80601f0160208091040260200160405190810160405280929190818152602001828054611e2990614bea565b8015611e765780601f10611e4b57610100808354040283529160200191611e76565b820191906000526020600020905b815481529060010190602001808311611e5957829003601f168201915b50505050508152602001600382018054611e8f90614bea565b80601f0160208091040260200160405190810160405280929190818152602001828054611ebb90614bea565b8015611f085780601f10611edd57610100808354040283529160200191611f08565b820191906000526020600020905b815481529060010190602001808311611eeb57829003601f168201915b50505050508152602001600482018054611f2190614bea565b80601f0160208091040260200160405190810160405280929190818152602001828054611f4d90614bea565b8015611f9a5780601f10611f6f57610100808354040283529160200191611f9a565b820191906000526020600020905b815481529060010190602001808311611f7d57829003601f168201915b5050505050815260200160058201548152602001600682018054611fbd90614bea565b80601f0160208091040260200160405190810160405280929190818152602001828054611fe990614bea565b80156120365780601f1061200b57610100808354040283529160200191612036565b820191906000526020600020905b81548152906001019060200180831161201957829003601f168201915b505050505081526020016007820160009054906101000a900473ffffffffffffffffffffffffffffffffffffffff1673ffffffffffffffffffffffffffffffffffffffff1673ffffffffffffffffffffffffffffffffffffffff16815250509050919050565b606060096000838152602001908152602001600020805480602002602001604051908101604052809291908181526020016000905b8282101561245257838290600052602060002090600902016040518061012001604052908160008201548152602001600182015481526020016002820154815260200160038201805461212390614bea565b80601f016020809104026020016040519081016040528092919081815260200182805461214f90614bea565b801561219c5780601f106121715761010080835404028352916020019161219c565b820191906000526020600020905b81548152906001019060200180831161217f57829003601f168201915b505050505081526020016004820180546121b590614bea565b80601f01602080910402602001604051908101604052809291908181526020018280546121e190614bea565b801561222e5780601f106122035761010080835404028352916020019161222e565b820191906000526020600020905b81548152906001019060200180831161221157829003601f168201915b5050505050815260200160058201805461224790614bea565b80601f016020809104026020016040519081016040528092919081815260200182805461227390614bea565b80156122c05780601f10612295576101008083540402835291602001916122c0565b820191906000526020600020905b8154815290600101906020018083116122a357829003601f168201915b505050505081526020016006820180546122d990614bea565b80601f016020809104026020016040519081016040528092919081815260200182805461230590614bea565b80156123525780601f1061232757610100808354040283529160200191612352565b820191906000526020600020905b81548152906001019060200180831161233557829003601f168201915b5050505050815260200160078201805461236b90614bea565b80601f016020809104026020016040519081016040528092919081815260200182805461239790614bea565b80156123e45780601f106123b9576101008083540402835291602001916123e4565b820191906000526020600020905b8154815290600101906020018083116123c757829003601f168201915b505050505081526020016008820160009054906101000a900473ffffffffffffffffffffffffffffffffffffffff1673ffffffffffffffffffffffffffffffffffffffff1673ffffffffffffffffffffffffffffffffffffffff1681525050815260200190600101906120d1565b505050509050919050565b606060086000838152602001908152602001600020805480602002602001604051908101604052809291908181526020016000905b828210156128135783829060005260206000209060090201604051806101200160405290816000820154815260200160018201548152602001600282015481526020016003820180546124e490614bea565b80601f016020809104026020016040519081016040528092919081815260200182805461251090614bea565b801561255d5780601f106125325761010080835404028352916020019161255d565b820191906000526020600020905b81548152906001019060200180831161254057829003601f168201915b5050505050815260200160048201805461257690614bea565b80601f01602080910402602001604051908101604052809291908181526020018280546125a290614bea565b80156125ef5780601f106125c4576101008083540402835291602001916125ef565b820191906000526020600020905b8154815290600101906020018083116125d257829003601f168201915b5050505050815260200160058201805461260890614bea565b80601f016020809104026020016040519081016040528092919081815260200182805461263490614bea565b80156126815780601f1061265657610100808354040283529160200191612681565b820191906000526020600020905b81548152906001019060200180831161266457829003601f168201915b5050505050815260200160068201805461269a90614bea565b80601f01602080910402602001604051908101604052809291908181526020018280546126c690614bea565b80156127135780601f106126e857610100808354040283529160200191612713565b820191906000526020600020905b8154815290600101906020018083116126f657829003601f168201915b5050505050815260200160078201805461272c90614bea565b80601f016020809104026020016040519081016040528092919081815260200182805461275890614bea565b80156127a55780601f1061277a576101008083540402835291602001916127a5565b820191906000526020600020905b81548152906001019060200180831161278857829003601f168201915b505050505081526020016008820160009054906101000a900473ffffffffffffffffffffffffffffffffffffffff1673ffffffffffffffffffffffffffffffffffffffff1673ffffffffffffffffffffffffffffffffffffffff168152505081526020019060010190612492565b505050509050919050565b6128266136b0565b6000600190505b6002548111612b81578273ffffffffffffffffffffffffffffffffffffffff166006600083815260200190815260200160002060010160009054906101000a900473ffffffffffffffffffffffffffffffffffffffff1673ffffffffffffffffffffffffffffffffffffffff161415612b6e57600660008281526020019081526020016000206040518060c0016040529081600082015481526020016001820160009054906101000a900473ffffffffffffffffffffffffffffffffffffffff1673ffffffffffffffffffffffffffffffffffffffff1673ffffffffffffffffffffffffffffffffffffffff16815260200160028201805461292e90614bea565b80601f016020809104026020016040519081016040528092919081815260200182805461295a90614bea565b80156129a75780601f1061297c576101008083540402835291602001916129a7565b820191906000526020600020905b81548152906001019060200180831161298a57829003601f168201915b505050505081526020016003820180546129c090614bea565b80601f01602080910402602001604051908101604052809291908181526020018280546129ec90614bea565b8015612a395780601f10612a0e57610100808354040283529160200191612a39565b820191906000526020600020905b815481529060010190602001808311612a1c57829003601f168201915b50505050508152602001600482018054612a5290614bea565b80601f0160208091040260200160405190810160405280929190818152602001828054612a7e90614bea565b8015612acb5780601f10612aa057610100808354040283529160200191612acb565b820191906000526020600020905b815481529060010190602001808311612aae57829003601f168201915b50505050508152602001600582018054612ae490614bea565b80601f0160208091040260200160405190810160405280929190818152602001828054612b1090614bea565b8015612b5d5780601f10612b3257610100808354040283529160200191612b5d565b820191906000526020600020905b815481529060010190602001808311612b4057829003601f168201915b505050505081525050915050612bbd565b8080612b7990614c4d565b91505061282d565b506040517f08c379a0000000000000000000000000000000000000000000000000000000008152600401612bb4906147ad565b60405180910390fd5b919050565b60008083604051602001612bd69190614547565b6040516020818303038152906040528051906020012090506000806000612bfc86613476565b92509250925060018484848460405160008152602001604052604051612c259493929190614633565b6020604051602081039080840390855afa158015612c47573d6000803e3d6000fd5b5050506020604051035194505050505092915050565b60606000805467ffffffffffffffff811115612c7c57612c7b614d2d565b5b604051908082528060200260200182016040528015612cb557816020015b612ca2613655565b815260200190600190039081612c9a5790505b50905060005b6000548110156130655760046000600183612cd69190614aaa565b81526020019081526020016000206040518061010001604052908160008201548152602001600182018054612d0a90614bea565b80601f0160208091040260200160405190810160405280929190818152602001828054612d3690614bea565b8015612d835780601f10612d5857610100808354040283529160200191612d83565b820191906000526020600020905b815481529060010190602001808311612d6657829003601f168201915b50505050508152602001600282018054612d9c90614bea565b80601f0160208091040260200160405190810160405280929190818152602001828054612dc890614bea565b8015612e155780601f10612dea57610100808354040283529160200191612e15565b820191906000526020600020905b815481529060010190602001808311612df857829003601f168201915b50505050508152602001600382018054612e2e90614bea565b80601f0160208091040260200160405190810160405280929190818152602001828054612e5a90614bea565b8015612ea75780601f10612e7c57610100808354040283529160200191612ea7565b820191906000526020600020905b815481529060010190602001808311612e8a57829003601f168201915b50505050508152602001600482018054612ec090614bea565b80601f0160208091040260200160405190810160405280929190818152602001828054612eec90614bea565b8015612f395780601f10612f0e57610100808354040283529160200191612f39565b820191906000526020600020905b815481529060010190602001808311612f1c57829003601f168201915b5050505050815260200160058201548152602001600682018054612f5c90614bea565b80601f0160208091040260200160405190810160405280929190818152602001828054612f8890614bea565b8015612fd55780601f10612faa57610100808354040283529160200191612fd5565b820191906000526020600020905b815481529060010190602001808311612fb857829003601f168201915b505050505081526020016007820160009054906101000a900473ffffffffffffffffffffffffffffffffffffffff1673ffffffffffffffffffffffffffffffffffffffff1673ffffffffffffffffffffffffffffffffffffffff168152505082828151811061304757613046614cfe565b5b6020026020010181905250808061305d90614c4d565b915050612cbb565b508091505090565b6060600060015467ffffffffffffffff81111561308d5761308c614d2d565b5b6040519080825280602002602001820160405280156130c657816020015b6130b3613602565b8152602001906001900390816130ab5790505b5090506000600190505b600154811161346e57600560008281526020019081526020016000206040518060e00160405290816000820154815260200160018201805461311190614bea565b80601f016020809104026020016040519081016040528092919081815260200182805461313d90614bea565b801561318a5780601f1061315f5761010080835404028352916020019161318a565b820191906000526020600020905b81548152906001019060200180831161316d57829003601f168201915b505050505081526020016002820180546131a390614bea565b80601f01602080910402602001604051908101604052809291908181526020018280546131cf90614bea565b801561321c5780601f106131f15761010080835404028352916020019161321c565b820191906000526020600020905b8154815290600101906020018083116131ff57829003601f168201915b5050505050815260200160038201805461323590614bea565b80601f016020809104026020016040519081016040528092919081815260200182805461326190614bea565b80156132ae5780601f10613283576101008083540402835291602001916132ae565b820191906000526020600020905b81548152906001019060200180831161329157829003601f168201915b505050505081526020016004820160009054906101000a900473ffffffffffffffffffffffffffffffffffffffff1673ffffffffffffffffffffffffffffffffffffffff1673ffffffffffffffffffffffffffffffffffffffff16815260200160058201805461331d90614bea565b80601f016020809104026020016040519081016040528092919081815260200182805461334990614bea565b80156133965780601f1061336b57610100808354040283529160200191613396565b820191906000526020600020905b81548152906001019060200180831161337957829003601f168201915b505050505081526020016006820180546133af90614bea565b80601f01602080910402602001604051908101604052809291908181526020018280546133db90614bea565b80156134285780601f106133fd57610100808354040283529160200191613428565b820191906000526020600020905b81548152906001019060200180831161340b57829003601f168201915b5050505050815250508260018361343f9190614b00565b815181106134505761344f614cfe565b5b6020026020010181905250808061346690614c4d565b9150506130d0565b508091505090565b600080600060418451146134bf576040517f08c379a00000000000000000000000000000000000000000000000000000000081526004016134b6906147ed565b60405180910390fd5b60008060006020870151925060408701519150606087015160001a90508083839550955095505050509193909250565b8280546134fb90614bea565b90600052602060002090601f01602090048101928261351d5760008555613564565b82601f1061353657805160ff1916838001178555613564565b82800160010185558215613564579182015b82811115613563578251825591602001919060010190613548565b5b50905061357191906136fc565b5090565b82805461358190614bea565b90600052602060002090601f0160209004810192826135a357600085556135f1565b82601f106135b457805485556135f1565b828001600101855582156135f157600052602060002091601f016020900482015b828111156135f05782548255916001019190600101906135d5565b5b5090506135fe91906136fc565b5090565b6040518060e0016040528060008152602001606081526020016060815260200160608152602001600073ffffffffffffffffffffffffffffffffffffffff16815260200160608152602001606081525090565b60405180610100016040528060008152602001606081526020016060815260200160608152602001606081526020016000815260200160608152602001600073ffffffffffffffffffffffffffffffffffffffff1681525090565b6040518060c0016040528060008152602001600073ffffffffffffffffffffffffffffffffffffffff168152602001606081526020016060815260200160608152602001606081525090565b5b808211156137155760008160009055506001016136fd565b5090565b600061372c61372784614965565b614940565b90508281526020810184848401111561374857613747614d61565b5b613753848285614ba8565b509392505050565b600061376e61376984614996565b614940565b90508281526020810184848401111561378a57613789614d61565b5b613795848285614ba8565b509392505050565b6000813590506137ac81614e9d565b6137b581614b34565b905092915050565b6000813590506137cc81614eb4565b92915050565b600082601f8301126137e7576137e6614d5c565b5b81356137f7848260208601613719565b91505092915050565b600082601f83011261381557613814614d5c565b5b813561382584826020860161375b565b91505092915050565b60008135905061383d81614ecb565b92915050565b60006020828403121561385957613858614d6b565b5b60006138678482850161379d565b91505092915050565b6000806040838503121561388757613886614d6b565b5b6000613895858286016137bd565b925050602083013567ffffffffffffffff8111156138b6576138b5614d66565b5b6138c2858286016137d2565b9150509250929050565b600080600080600060a086880312156138e8576138e7614d6b565b5b600086013567ffffffffffffffff81111561390657613905614d66565b5b61391288828901613800565b95505060206139238882890161379d565b945050604086013567ffffffffffffffff81111561394457613943614d66565b5b61395088828901613800565b935050606086013567ffffffffffffffff81111561397157613970614d66565b5b61397d88828901613800565b925050608086013567ffffffffffffffff81111561399e5761399d614d66565b5b6139aa88828901613800565b9150509295509295909350565b60008060008060008060c087890312156139d4576139d3614d6b565b5b600087013567ffffffffffffffff8111156139f2576139f1614d66565b5b6139fe89828a01613800565b965050602087013567ffffffffffffffff811115613a1f57613a1e614d66565b5b613a2b89828a01613800565b955050604087013567ffffffffffffffff811115613a4c57613a4b614d66565b5b613a5889828a01613800565b9450506060613a6989828a0161379d565b935050608087013567ffffffffffffffff811115613a8a57613a89614d66565b5b613a9689828a01613800565b92505060a087013567ffffffffffffffff811115613ab757613ab6614d66565b5b613ac389828a01613800565b9150509295509295509295565b600080600080600080600060e0888a031215613aef57613aee614d6b565b5b600088013567ffffffffffffffff811115613b0d57613b0c614d66565b5b613b198a828b01613800565b975050602088013567ffffffffffffffff811115613b3a57613b39614d66565b5b613b468a828b01613800565b965050604088013567ffffffffffffffff811115613b6757613b66614d66565b5b613b738a828b01613800565b955050606088013567ffffffffffffffff811115613b9457613b93614d66565b5b613ba08a828b01613800565b9450506080613bb18a828b0161379d565b93505060a0613bc28a828b0161382e565b92505060c088013567ffffffffffffffff811115613be357613be2614d66565b5b613bef8a828b01613800565b91505092959891949750929550565b600060208284031215613c1457613c13614d6b565b5b6000613c228482850161382e565b91505092915050565b60008060008060008060c08789031215613c4857613c47614d6b565b5b6000613c5689828a0161382e565b9650506020613c6789828a0161382e565b955050604087013567ffffffffffffffff811115613c8857613c87614d66565b5b613c9489828a01613800565b945050606087013567ffffffffffffffff811115613cb557613cb4614d66565b5b613cc189828a01613800565b935050608087013567ffffffffffffffff811115613ce257613ce1614d66565b5b613cee89828a01613800565b92505060a087013567ffffffffffffffff811115613d0f57613d0e614d66565b5b613d1b89828a01613800565b9150509295509295509295565b6000613d34838361407c565b905092915050565b6000613d48838361415d565b905092915050565b6000613d5c8383614393565b905092915050565b613d6d81614b34565b82525050565b613d7c81614b34565b82525050565b6000613d8d826149f7565b613d978185614a4a565b935083602082028501613da9856149c7565b8060005b85811015613de55784840389528151613dc68582613d28565b9450613dd183614a23565b925060208a01995050600181019050613dad565b50829750879550505050505092915050565b6000613e0282614a02565b613e0c8185614a5b565b935083602082028501613e1e856149d7565b8060005b85811015613e5a5784840389528151613e3b8582613d3c565b9450613e4683614a30565b925060208a01995050600181019050613e22565b50829750879550505050505092915050565b6000613e7782614a0d565b613e818185614a6c565b935083602082028501613e93856149e7565b8060005b85811015613ecf5784840389528151613eb08582613d50565b9450613ebb83614a3d565b925060208a01995050600181019050613e97565b50829750879550505050505092915050565b613eea81614b46565b82525050565b613f01613efc82614b46565b614c96565b82525050565b6000613f1282614a18565b613f1c8185614a7d565b9350613f2c818560208601614bb7565b613f3581614d70565b840191505092915050565b6000613f4b82614a18565b613f558185614a8e565b9350613f65818560208601614bb7565b613f6e81614d70565b840191505092915050565b6000613f8482614a18565b613f8e8185614a9f565b9350613f9e818560208601614bb7565b80840191505092915050565b6000613fb7601c83614a9f565b9150613fc282614d81565b601c82019050919050565b6000613fda601183614a8e565b9150613fe582614daa565b602082019050919050565b6000613ffd601183614a8e565b915061400882614dd3565b602082019050919050565b6000614020602c83614a8e565b915061402b82614dfc565b604082019050919050565b6000614043601883614a8e565b915061404e82614e4b565b602082019050919050565b6000614066601683614a8e565b915061407182614e74565b602082019050919050565b6000610120830160008301516140956000860182614503565b5060208301516140a86020860182614503565b5060408301516140bb6040860182614503565b50606083015184820360608601526140d38282613f07565b915050608083015184820360808601526140ed8282613f07565b91505060a083015184820360a08601526141078282613f07565b91505060c083015184820360c08601526141218282613f07565b91505060e083015184820360e086015261413b8282613f07565b915050610100830151614152610100860182613d64565b508091505092915050565b6000610100830160008301516141766000860182614503565b506020830151848203602086015261418e8282613f07565b915050604083015184820360408601526141a88282613f07565b915050606083015184820360608601526141c28282613f07565b915050608083015184820360808601526141dc8282613f07565b91505060a08301516141f160a0860182614503565b5060c083015184820360c08601526142098282613f07565b91505060e083015161421e60e0860182613d64565b508091505092915050565b6000610100830160008301516142426000860182614503565b506020830151848203602086015261425a8282613f07565b915050604083015184820360408601526142748282613f07565b9150506060830151848203606086015261428e8282613f07565b915050608083015184820360808601526142a88282613f07565b91505060a08301516142bd60a0860182614503565b5060c083015184820360c08601526142d58282613f07565b91505060e08301516142ea60e0860182613d64565b508091505092915050565b600060c08301600083015161430d6000860182614503565b5060208301516143206020860182613d64565b50604083015184820360408601526143388282613f07565b915050606083015184820360608601526143528282613f07565b9150506080830151848203608086015261436c8282613f07565b91505060a083015184820360a08601526143868282613f07565b9150508091505092915050565b600060e0830160008301516143ab6000860182614503565b50602083015184820360208601526143c38282613f07565b915050604083015184820360408601526143dd8282613f07565b915050606083015184820360608601526143f78282613f07565b915050608083015161440c6080860182613d64565b5060a083015184820360a08601526144248282613f07565b91505060c083015184820360c086015261443e8282613f07565b9150508091505092915050565b600060e0830160008301516144636000860182614503565b506020830151848203602086015261447b8282613f07565b915050604083015184820360408601526144958282613f07565b915050606083015184820360608601526144af8282613f07565b91505060808301516144c46080860182613d64565b5060a083015184820360a08601526144dc8282613f07565b91505060c083015184820360c08601526144f68282613f07565b9150508091505092915050565b61450c81614b91565b82525050565b61451b81614b91565b82525050565b61452a81614b9b565b82525050565b600061453c8284613f79565b915081905092915050565b600061455282613faa565b915061455e8284613ef0565b60208201915081905092915050565b60006020820190506145826000830184613d73565b92915050565b600060608201905061459d6000830186613d73565b81810360208301526145af8185613f40565b905081810360408301526145c38184613f40565b9050949350505050565b600060208201905081810360008301526145e78184613d82565b905092915050565b600060208201905081810360008301526146098184613df7565b905092915050565b6000602082019050818103600083015261462b8184613e6c565b905092915050565b60006080820190506146486000830187613ee1565b6146556020830186614521565b6146626040830185613ee1565b61466f6060830184613ee1565b95945050505050565b600060608201905081810360008301526146928186613f40565b905081810360208301526146a68185613f40565b90506146b56040830184613d73565b949350505050565b600060808201905081810360008301526146d78187613f40565b905081810360208301526146eb8186613f40565b905081810360408301526146ff8185613f40565b905081810360608301526147138184613f40565b905095945050505050565b600060a08201905081810360008301526147388188613f40565b9050818103602083015261474c8187613f40565b905081810360408301526147608186613f40565b905081810360608301526147748185613f40565b90506147836080830184613d73565b9695505050505050565b600060208201905081810360008301526147a681613fcd565b9050919050565b600060208201905081810360008301526147c681613ff0565b9050919050565b600060208201905081810360008301526147e681614013565b9050919050565b6000602082019050818103600083015261480681614036565b9050919050565b6000602082019050818103600083015261482681614059565b9050919050565b600060208201905081810360008301526148478184614229565b905092915050565b6000602082019050818103600083015261486981846142f5565b905092915050565b6000602082019050818103600083015261488b818461444b565b905092915050565b60006020820190506148a86000830184614512565b92915050565b600060e0820190506148c3600083018a614512565b81810360208301526148d58189613f40565b905081810360408301526148e98188613f40565b905081810360608301526148fd8187613f40565b905061490c6080830186613d73565b81810360a083015261491e8185613f40565b905081810360c08301526149328184613f40565b905098975050505050505050565b600061494a61495b565b90506149568282614c1c565b919050565b6000604051905090565b600067ffffffffffffffff8211156149805761497f614d2d565b5b61498982614d70565b9050602081019050919050565b600067ffffffffffffffff8211156149b1576149b0614d2d565b5b6149ba82614d70565b9050602081019050919050565b6000819050602082019050919050565b6000819050602082019050919050565b6000819050602082019050919050565b600081519050919050565b600081519050919050565b600081519050919050565b600081519050919050565b6000602082019050919050565b6000602082019050919050565b6000602082019050919050565b600082825260208201905092915050565b600082825260208201905092915050565b600082825260208201905092915050565b600082825260208201905092915050565b600082825260208201905092915050565b600081905092915050565b6000614ab582614b91565b9150614ac083614b91565b9250827fffffffffffffffffffffffffffffffffffffffffffffffffffffffffffffffff03821115614af557614af4614ca0565b5b828201905092915050565b6000614b0b82614b91565b9150614b1683614b91565b925082821015614b2957614b28614ca0565b5b828203905092915050565b6000614b3f82614b50565b9050919050565b6000819050919050565b600073ffffffffffffffffffffffffffffffffffffffff82169050919050565b600074ffffffffffffffffffffffffffffffffffffffffff82169050919050565b6000819050919050565b600060ff82169050919050565b82818337600083830152505050565b60005b83811015614bd5578082015181840152602081019050614bba565b83811115614be4576000848401525b50505050565b60006002820490506001821680614c0257607f821691505b60208210811415614c1657614c15614ccf565b5b50919050565b614c2582614d70565b810181811067ffffffffffffffff82111715614c4457614c43614d2d565b5b80604052505050565b6000614c5882614b91565b91507fffffffffffffffffffffffffffffffffffffffffffffffffffffffffffffffff821415614c8b57614c8a614ca0565b5b600182019050919050565b6000819050919050565b7f4e487b7100000000000000000000000000000000000000000000000000000000600052601160045260246000fd5b7f4e487b7100000000000000000000000000000000000000000000000000000000600052602260045260246000fd5b7f4e487b7100000000000000000000000000000000000000000000000000000000600052603260045260246000fd5b7f4e487b7100000000000000000000000000000000000000000000000000000000600052604160045260246000fd5b600080fd5b600080fd5b600080fd5b600080fd5b6000601f19601f8301169050919050565b7f19457468657265756d205369676e6564204d6573736167653a0a333200000000600082015250565b7f496e76616c6964207369676e6174757265000000000000000000000000000000600082015250565b7f50617469656e74206e6f7420666f756e64000000000000000000000000000000600082015250565b7f4e6f20646f63746f7220666f756e6420666f722074686520676976656e20776160008201527f6c6c657420616464726573730000000000000000000000000000000000000000602082015250565b7f496e76616c6964207369676e6174757265206c656e6774680000000000000000600082015250565b7f50617469656e7420616c72656164792065786973747300000000000000000000600082015250565b614ea681614b70565b8114614eb157600080fd5b50565b614ebd81614b46565b8114614ec857600080fd5b50565b614ed481614b91565b8114614edf57600080fd5b5056fea26474726f6e582212206c7933d4c28722e0b7813b1c801be8a9057862506aa77d4a2b085ee03d82cef964736f6c63430008060033",
  "source": "// SPDX-License-Identifier: UNLICENSED\npragma solidity ^0.8.6;\n\ncontract DeDoctor {\n    uint doctorCount;\n    uint pharmacyCount;\n    uint patientCount;\n    uint appointmentCount;\n\n    struct DoctorProfile {\n        uint doctorId;\n        string name;\n        string gender;\n        string city;\n        string language;\n        uint price;\n        string profileURI;\n        address docAddress;\n    }\n\n    struct Pharmacy {\n        uint id;\n        string name;\n        string city;\n        string ownerName;\n        address ownerAddress;\n        string number;\n        string uri;\n    }\n\n    struct Patient {\n        uint patientId;\n        address walletAddress;\n        string name;\n        string gender;\n        string city;\n        string patientUri;\n    }\n\n    struct Appointment {\n        uint256 id;\n        uint256 patientId;\n        uint256 doctorId;\n        string appointmentUri;\n        string symptoms;\n        string pastSymptoms;\n        string date;\n        string time;\n        address walletAddress;\n    }\n\n    mapping(uint => DoctorProfile) doctors;\n    mapping(uint => Pharmacy) public pharmacies;\n    mapping(uint => Patient) patients;\n\n    mapping(uint256 => Appointment) private appointmentRecords;\n    mapping(uint256 => Appointment[]) private appointmentsByPatientId;\n    mapping(uint256 => Appointment[]) private appointmentsByDoctorId;\n\n    event AppointmentCreated(\n        uint256 indexed id,\n        uint256 indexed patientId,\n        uint256 indexed doctorId,\n        string symptoms,\n        string pastSymptoms,\n        string date,\n        string time,\n        address walletAddress\n    );\n\n    event RegisteredDoctor(\n        string indexed name,\n        string gender,\n        string indexed city,\n        string indexed language,\n        string profileURI,\n        address docAddress\n    );\n\n    event RegisteredPharmacy(\n        string indexed name,\n        string indexed city,\n        string indexed ownerName,\n        address ownerAddress,\n        string number,\n        string uri\n    );\n\n    event PatientRegistered(\n        uint indexed patientId,\n        address indexed walletAddress,\n        string name,\n        string gender,\n        string city,\n        string patientUri\n    );\n\n    function registerDoctor(\n        string memory name,\n        string memory gender,\n        string memory city,\n        string memory language,\n        address docAddress,\n        uint price,\n        string memory profileURI\n    ) public {\n        doctorCount++;\n        doctors[doctorCount] = DoctorProfile({\n            doctorId: doctorCount,\n            name: name,\n            gender: gender,\n            city: city,\n            language: language,\n            price: price,\n            profileURI: profileURI,\n            docAddress: docAddress\n        });\n        emit RegisteredDoctor(\n            name,\n            gender,\n            city,\n            language,\n            profileURI,\n            docAddress\n        );\n    }\n\n    function getDoctorById(\n        uint doctorId\n    ) public view returns (DoctorProfile memory) {\n        return doctors[doctorId];\n    }\n\n    function getAllDoctors() public view returns (DoctorProfile[] memory) {\n        DoctorProfile[] memory allDoctors = new DoctorProfile[](doctorCount);\n        for (uint i = 0; i < doctorCount; i++) {\n            allDoctors[i] = doctors[i + 1];\n        }\n        return allDoctors;\n    }\n\n    function registerPharmacy(\n        string memory name,\n        string memory city,\n        string memory ownerName,\n        address ownerAddress,\n        string memory number,\n        string memory uri\n    ) public returns (Pharmacy memory) {\n        pharmacyCount++;\n        pharmacies[pharmacyCount] = Pharmacy({\n            id: pharmacyCount,\n            name: name,\n            city: city,\n            ownerName: ownerName,\n            ownerAddress: ownerAddress,\n            number: number,\n            uri: uri\n        });\n\n        emit RegisteredPharmacy(\n            name,\n            city,\n            ownerName,\n            ownerAddress,\n            number,\n            uri\n        );\n        return pharmacies[pharmacyCount];\n    }\n\n    function registerPatient(\n        string memory name,\n        address walletAddress,\n        string memory gender,\n        string memory city,\n        string memory patientUri\n    ) public returns (uint) {\n        for (uint i = 1; i <= patientCount; i++) {\n            require(\n                patients[i].walletAddress != walletAddress,\n                \"Patient already exists\"\n            );\n        }\n\n        patientCount++;\n        patients[patientCount] = Patient({\n            patientId: patientCount,\n            walletAddress: walletAddress,\n            name: name,\n            gender: gender,\n            city: city,\n            patientUri: patientUri\n        });\n\n        emit PatientRegistered(\n            patientCount,\n            walletAddress,\n            name,\n            gender,\n            city,\n            patientUri\n        );\n\n        return patientCount;\n    }\n\n    function createAppointment(\n        uint256 patientId,\n        uint256 doctorId,\n        string memory symptoms,\n        string memory pastSymptoms,\n        string memory date,\n        string memory time\n    ) public {\n        appointmentCount++;\n        appointmentRecords[appointmentCount] = Appointment({\n            id: appointmentCount,\n            patientId: patientId,\n            doctorId: doctorId,\n            appointmentUri: \"\",\n            symptoms: symptoms,\n            pastSymptoms: pastSymptoms,\n            date: date,\n            time: time,\n            walletAddress: msg.sender\n        });\n        appointmentsByPatientId[patientId].push(\n            appointmentRecords[appointmentCount]\n        );\n        appointmentsByDoctorId[doctorId].push(\n            appointmentRecords[appointmentCount]\n        );\n\n        emit AppointmentCreated(\n            appointmentCount,\n            patientId,\n            doctorId,\n            symptoms,\n            pastSymptoms,\n            date,\n            time,\n            msg.sender\n        );\n    }\n\n    function getPharmacyById(\n        uint pharmacyId\n    ) public view returns (Pharmacy memory) {\n        return pharmacies[pharmacyId];\n    }\n\n    function getAllPharmacies() public view returns (Pharmacy[] memory) {\n        Pharmacy[] memory allPharmacies = new Pharmacy[](pharmacyCount);\n        for (uint i = 1; i <= pharmacyCount; i++) {\n            allPharmacies[i - 1] = pharmacies[i];\n        }\n        return allPharmacies;\n    }\n\n    function getPatientByWalletAddress(\n        address walletAddress\n    ) public view returns (Patient memory) {\n        for (uint i = 1; i <= patientCount; i++) {\n            if (patients[i].walletAddress == walletAddress) {\n                return patients[i];\n            }\n        }\n        revert(\"Patient not found\");\n    }\n\n    function getDoctorByWalletAddress(\n        address walletAddress\n    ) public view returns (DoctorProfile memory) {\n        for (uint i = 1; i <= doctorCount; i++) {\n            if (walletAddress == doctors[i].docAddress) {\n                return doctors[i];\n            }\n        }\n        revert(\"No doctor found for the given wallet address\");\n    }\n\n    function getAppointmentsByDoctorId(\n        uint256 doctorId\n    ) public view returns (Appointment[] memory) {\n        return appointmentsByDoctorId[doctorId];\n    }\n\n    function getAppointmentsByPatientId(\n        uint256 patientId\n    ) public view returns (Appointment[] memory) {\n        return appointmentsByPatientId[patientId];\n    }\n\n    // --- Authentication with Signature Verification ---\n    \n    // Function to verify the signature\n    function verifySignature(bytes32 message, bytes memory signature) public pure returns (address) {\n        bytes32 ethSignedMessage = keccak256(abi.encodePacked(\"\\x19Ethereum Signed Message:\\n32\", message));\n        (uint8 v, bytes32 r, bytes32 s) = splitSignature(signature);\n        return ecrecover(ethSignedMessage, v, r, s);\n    }\n\n    // Utility function to split the signature\n    function splitSignature(bytes memory sig) internal pure returns (uint8, bytes32, bytes32) {\n        require(sig.length == 65, \"Invalid signature length\");\n        bytes32 r;\n        bytes32 s;\n        uint8 v;\n        assembly {\n            r := mload(add(sig, 32))\n            s := mload(add(sig, 64))\n            v := byte(0, mload(add(sig, 96)))\n        }\n        return (v, r, s);\n    }\n\n    // Example: Function requiring authentication\n    function authenticatedFunction(bytes32 message, bytes memory signature) public {\n        address signer = verifySignature(message, signature);\n        require(signer == msg.sender, \"Invalid signature\");\n        // Continue with function logic...\n    }\n}\n",
  "sourcePath": "/home/abraham/Abtron/contracts/dmed.sol",
  "compiler": {
    "name": "solc",
    "version": "0.8.6+commit.0e36fba0.mod.Emscripten.clang"
  },
  "schemaVersion": "2.0.1",
  "updatedAt": "2024-09-26T02:44:46.622Z"
}